:100000000C9446000C94D3020C9485020C94370295
:100010000C94E9010C949B010C944D010C94D400B8
:100020000C9465000C9465000C9465000C946500BC
:100030000C9465000C9465000C9465000C946500AC
:100040000C9428010C9465000C9465000C946500D8
:100050000C9465000C9465000C9465000C9465008C
:100060000C9465000C9465000C9465000C9465007C
:100070000C9465000C9465000C940B010C946500C5
:100080000C9465000C9465000C94650011241FBE4F
:10009000CFEFD0E1DEBFCDBF11E0A0E0B1E0ECE3F7
:1000A000F1E100E00BBF02C007900D92A230B10752
:1000B000D9F721E0A2E0B1E001C01D92AE38B2074D
:1000C000E1F70E9421030C949C080C94000024E3A7
:1000D00038E030938D0120938C01809300011092C1
:1000E0008B018091830190918401A0918501B09151
:1000F0008601092E000CAA0BBB0B809387019093FD
:100100008801A0938901B0938A01089585B58F7CF9
:1001100085BD13BCC7980895BF9AC79888E485BD6C
:1001200085B5846085BD0C948600FC01A281B381F5
:100130009C91892F90E0268102C0959587952A95FC
:10014000E2F78095909581700895409183015091D8
:1001500084016091850170918601E1E4F1E0052E52
:10016000000C660B770B428353836483758321E015
:1001700022879587848713868091830190918401DB
:10018000A0918501B0918601092E000CAA0BBB0B32
:1001900086839783A087B1870E948C000E94860087
:1001A0008BB3817F8BBB08951F920F920FB60F9276
:1001B00011242F933F938F939F930E9B15C08CB563
:1001C0009DB590938201809381018AB78F7E8ABF0B
:1001D0008AB780628ABF9F918F913F912F910F9034
:1001E0000FBE0F901F9018958CB59DB59093800110
:1001F00080937F0180917F01909180012091810106
:1002000030918201821B930B90937E0180937D013C
:100210008AB78063DFCF1F920F920FB60F9211241F
:100220008F9380919C008A3011F08D3059F4109298
:100230007C0181E080937B018F910F900FBE0F9026
:100240001F90189580917C018F5F80937C01F4CF83
:100250001F920F920FB60F9211248F939F93AF931B
:10026000BF938091830190918401A0918501B09109
:1002700086010196A11DB11D809383019093840195
:10028000A0938501B0938601BF91AF919F918F910B
:100290000F900FBE0F901F9018951F920F920FB6E0
:1002A0000F9211240F931F932F933F934F935F93BC
:1002B0006F937F938F939F93AF93BF9380918301AD
:1002C00090918401A0918501B0918601092E000CC6
:1002D000AA0BBB0B40917701509178016091790195
:1002E00070917A018C019D01041B150B260B370BB5
:1002F000B901A801423351056105710558F0809399
:10030000770190937801A0937901B0937A0181E00D
:1003100080937601BF91AF919F918F917F916F9163
:100320005F914F913F912F911F910F910F900FBEB1
:100330000F901F9018951F920F920FB60F921124D5
:100340000F931F932F933F934F935F936F937F93DD
:100350008F939F93AF93BF9380918301909184017A
:10036000A0918501B0918601092E000CAA0BBB0B50
:100370004091720150917301609174017091750107
:100380008C019D01041B150B260B370BB901A8012D
:10039000423351056105710558F0809372019093C5
:1003A0007301A0937401B093750181E08093710192
:1003B000BF91AF919F918F917F916F915F914F917D
:1003C0003F912F911F910F910F900FBE0F901F9093
:1003D00018951F920F920FB60F9211240F931F932F
:1003E0002F933F934F935F936F937F938F939F933D
:1003F000AF93BF938091830190918401A091850177
:10040000B0918601092E000CAA0BBB0B40916D0127
:1004100050916E0160916F01709170018C019D018E
:10042000041B150B260B370BB901A80142335105EC
:100430006105710558F080936D0190936E01A09352
:100440006F01B093700181E080936C01BF91AF9117
:100450009F918F917F916F915F914F913F912F91DC
:100460001F910F910F900FBE0F901F9018951F9224
:100470000F920FB60F9211240F931F932F933F9358
:100480004F935F936F937F938F939F93AF93BF939C
:100490008091830190918401A0918501B0918601A2
:1004A000092E000CAA0BBB0B409168015091690109
:1004B00060916A0170916B018C019D01041B150B09
:1004C000260B370BB901A8014233510561057105AF
:1004D00058F08093680190936901A0936A01B093EA
:1004E0006B0181E080936701BF91AF919F918F91E4
:1004F0007F916F915F914F913F912F911F910F913C
:100500000F900FBE0F901F9018951F920F920FB66D
:100510000F9211240F931F932F933F934F935F9349
:100520006F937F938F939F93AF93BF93809183013A
:1005300090918401A0918501B0918601092E000C53
:10054000AA0BBB0B4091630150916401609165015E
:10055000709166018C019D01041B150B260B370B56
:10056000B901A801423351056105710558F0809326
:10057000630190936401A0936501B093660181E0EB
:1005800080936201BF91AF919F918F917F916F9105
:100590005F914F913F912F911F910F910F900FBE3F
:1005A0000F901F9018951F920F920FB60F92112463
:1005B0000F931F932F933F934F935F936F937F936B
:1005C0008F939F93AF93BF93809183019091840108
:1005D000A0918501B0918601092E000CAA0BBB0BDE
:1005E00040915E0150915F016091600170916101E5
:1005F0008C019D01041B150B260B370BB901A801BB
:10060000423351056105710558F080935E01909366
:100610005F01A0936001B093610181E080935D016F
:10062000BF91AF919F918F917F916F915F914F910A
:100630003F912F911F910F910F900FBE0F901F9020
:10064000189587B38F6087BB83E0B82EB3BEAA240A
:10065000A394A7BE12BEA098A89AA19AA99801E354
:1006600010E08898C2E3D0E0909A80916A0082609E
:1006700080936A0080916A008E7F80936A0089B7B8
:10068000816089BF8998919A80916A00886080937F
:100690006A0080916A008B7F80936A0089B78260CC
:1006A00089BF8A98929A80916A00806280936A00DA
:1006B00080916A008F7E80936A0089B7846089BFC9
:1006C0008B98939A80916A00806880936A008091E9
:1006D0006A008F7B80936A0089B7886089BF92E245
:1006E000C92ED12C149823E2E22EF12C1C9A8AB741
:1006F00082608ABF8AB78E7F8ABF89B7806189BFCF
:1007000015981D9A8AB788608ABF8AB78B7F8ABF7F
:1007100089B7806289BF8AB38E608ABB8BB3817FC1
:100720008BBB0E948C0010931F0100931E0180E37D
:1007300090E09093210180932001D0932301C093F6
:100740002201109224018898909A10932601009318
:1007500025019093280180932701D0932A01C0930B
:100760002901A0922B018998919A10930A01009374
:10077000090190930C0180930B01D0930E01C0935B
:100780000D0122E020930F018A98929A1093110193
:10079000009310019093130180931201D0931501DF
:1007A000C0931401B09216018B98939AD0922D01A8
:1007B000C0922C0181E290E090932F0180932E0152
:1007C000F0923101E092300124E02093320114983C
:1007D0001C9AD0921801C092170190931A0180932D
:1007E0001901F0921C01E0921B0185E080931D012C
:1007F00015981D9A82B1866082B983B1897F83B9C9
:10080000109A16981E9A8AB780638ABF89B7806447
:1008100089BF1EBC8EB583608EBD1092820110927E
:1008200081011092800110927F0110927E0110923E
:100830007D01789401E010E07724739433E0A32ED7
:10084000B12C44EB242E50EF652E62E0562E74E05E
:10085000472EE8E03E2EC0908301D0908401E090C6
:100860008501F09086010D2C000CEE08FF088EE14A
:1008700091E00E949500882339F085E291E00E9482
:100880009500C1E0811101C0C0E089E091E00E94C3
:100890009500882339F080E191E00E949500D1E035
:1008A000811101C0D0E0809053019090540121E06B
:1008B0008216910409F474C168F042E08416910430
:1008C00009F48EC153E08516910409F4BCC1C1112D
:1008D00012C05EC1CC2309F459C180910401811179
:1008E00031C1C0925501D0925601E0925701F09269
:1008F000580170920401D11106C0829910926701CB
:10090000839910926C01C0908301D0908401E09093
:100910008501F09086010D2C000CEE08FF088CE29A
:1009200091E00E949500882309F4C3C180910501DC
:1009300090910601A0910701B0910801A7019601CD
:10094000281B390B4A0B5B0BDA01C901883C910566
:10095000A105B10508F0B4C1C0908301D090840115
:10096000E0908501F09086010D2C000CEE08FF0848
:100970008091380190913901A0913A01B0913B01E9
:10098000A7019601281B390B4A0B5B0BDA01C90141
:1009900084369105A105B10508F440C0189835E0EA
:1009A0003A95F1F70000189A45E34A95F1F70000EF
:1009B000189880917D0190917E01892B09F4B1C135
:1009C00060917D0170917E0190E080E00E94A1071E
:1009D0002DEB37E346E856E30E94070820E030EDB0
:1009E00044E057E40E9407080E9472076C337105C7
:1009F00068F483B1866083B970923701C092330185
:100A0000D0923401E0923501F0923601C092380163
:100A1000D0923901E0923A01F0923B018091370186
:100A20008823C1F08091330190913401A091350168
:100A3000B0913601C81AD90AEA0AFB0A58E8C51665
:100A400053E1D506E104F10428F083B1897F83B92D
:100A5000109237018091830190918401A0918501CA
:100A6000B0918601092E000CAA0BBB0B989B5DC1AF
:100A700080933D0190933E01A0933F01B0934001CC
:100A800070923C01A99A80918C0190918D010197FF
:100A900091F480914101909142018130910509F0DA
:100AA0005FC182E090E0909342018093410183E036
:100AB00090E00E94A500C0908301D0908401E09056
:100AC0008501F09086018BB3817F8BBB80914B01B8
:100AD000882309F483C10D2C000CEE08FF088091D7
:100AE000470190914801A0914901B0914A01A701A5
:100AF0009601281B390B4A0B5B0BDA01C9018C32BA
:100B00009140A105B10508F441C180914D0190913A
:100B10004E01C0924701D0924801E0924901F09203
:100B20004A0120914C0121112AC18130910538F0F0
:100B30008330910508F41CC1039709F488C10E9411
:100B400086001DC18091550190915601A0915701D9
:100B5000B0915801C81AD90AEA0AFB0A88EBC816EC
:100B60008BE0D806E104F10408F4C5CE81E00E94D0
:100B70006700109342010093410181E090E00E94E0
:100B8000A5001093540100935301B5CE10920401B7
:100B9000809910925D01819BAECE10926201ABCE26
:100BA00080914101909142018230910509F08FCEF0
:100BB000DD2309F444C02091030121110EC0C0922D
:100BC0005501D0925601E0925701F092580170926F
:100BD00003019093540180935301C11194CED8CF57
:100BE000DD2319F18091550190915601A091570193
:100BF000B0915801C81AD90AEA0AFB0A28EBC216B2
:100C00002BE0D206E104F10440F380E00E9467008B
:100C1000B0924201A092410182E090E00E94A500C2
:100C2000B0925401A0925301D8CF10920301C09208
:100C30005501D0925601E0925701F0925801CC2311
:100C400009F4A6CF5ACE80914101909142010097BC
:100C500071F4D111C2CF81E00E946700109342016C
:100C60000093410181E090E00E94A500E8CF029747
:100C700009F02DCECC2309F48BCF80E00E946700D1
:100C8000909242018092410182E090E00E94A50092
:100C9000109254011092530110920401109203011A
:100CA000109255011092560110925701109258015E
:100CB00022CE87E191E00E949500811137CE4CCE83
:100CC00080914F0190915001892B61F480914101F5
:100CD00090914201009779F00297C9F01092540167
:100CE00010925301C0920501D0920601E0920701D3
:100CF000F092080131CE81E00E946700109342011A
:100D00000093410181E090E00E94A500E7CF80E0E0
:100D10000E946700B0924201A092410182E090E0FF
:100D2000F3CF83B1897F83B971CE20913C01222317
:100D300009F4A9CE40913D0150913E0160913F01DF
:100D400070914001841B950BA60BB70B883893411B
:100D5000A105B10508F497CE10923C01A99893CE55
:100D6000039709F0A8CE10924201109241019FCE44
:100D7000D99A0E948C0023BC85B5806385BD81E033
:100D800090914C01911180E080934C0180914D0134
:100D900090914E01039709F05EC088EE93E0A0E0C9
:100DA000B0E0409143015091440160914501709140
:100DB0004601C41AD50AE60AF70AC816D906EA0691
:100DC000FB0620F010924B010E94860080914B019F
:100DD000882321F080914C01811107C0809141014D
:100DE000909142010097E1F5DB9A80918C019091FE
:100DF0008D01892B09F42FCD80918301909184017D
:100E0000A0918501B09186014091870150918801A0
:100E10006091890170918A01092E000CAA0BBB0B0D
:100E2000841B950BA60BB70B0A97A105B10508F417
:100E300012CD80918B01813009F449C0E8F08230F5
:100E400009F447C0833009F446C018BA16C00E949E
:100E50008C0063BC91CF80E197E2A0E0B0E0A1CF2D
:100E60009C012D7F2130310511F4D99ABECF029714
:100E700009F0BBCFDA9AB9CF78BA8091830190910B
:100E80008401A0918501B0918601092E000CAA0B66
:100E9000BB0B8093870190938801A0938901B09345
:100EA0008A01809100018823C1F080918B0190E03C
:100EB00001968370992780938B0180918C0190918A
:100EC0008D01019790938D0180938C01C4CC58BA09
:100ED000D4CF48BAD2CF38BAD0CF80918B0190E02E
:100EE0000396E7CF0E94E60788F09F5798F0B92F46
:100EF0009927B751B0F0E1F0660F771F881F991F4F
:100F00001AF0BA95C9F714C0B13091F00E940008E8
:100F1000B1E008950C940008672F782F8827B85FF8
:100F200039F0B93FCCF3869577956795B395D9F7A6
:100F30003EF490958095709561957F4F8F4F9F4FB0
:100F40000895E89409C097FB3EF4909580957095BC
:100F500061957F4F8F4F9F4F9923A9F0F92F96E905
:100F6000BB279395F695879577956795B795F1117A
:100F7000F8CFFAF4BB0F11F460FF1BC06F5F7F4F17
:100F80008F4F9F4F16C0882311F096E911C0772329
:100F900021F09EE8872F762F05C0662371F096E832
:100FA000862F70E060E02AF09A95660F771F881F01
:100FB000DAF7880F9695879597F9089557FD905819
:100FC000440F551F59F05F3F71F04795880F97FB0D
:100FD000991F61F09F3F79F08795089512161306C7
:100FE0001406551FF2CF4695F1DF08C016161706F6
:100FF0001806991FF1CF869571056105089408952B
:10100000E894BB2766277727CB0197F908950E94BC
:101010001A080C948B080E947D0838F00E948408FE
:1010200020F0952311F00C9474080C947A08112484
:101030000C9401080E94DE0770F3959FC1F3950F91
:1010400050E0551F629FF001729FBB27F00DB11D4C
:10105000639FAA27F00DB11DAA1F649F6627B00DDC
:10106000A11D661F829F2227B00DA11D621F739FC5
:10107000B00DA11D621F839FA00D611D221F749FD3
:101080003327A00D611D231F849F600D211D822F1A
:10109000762F6A2F11249F5750409AF0F1F0882341
:1010A0004AF0EE0FFF1FBB1F661F771F881F91506E
:1010B0005040A9F79E3F510580F00C9474080C94A1
:1010C00001085F3FE4F3983ED4F3869577956795E2
:1010D000B795F795E7959F5FC1F7FE2B880F911D98
:1010E0009695879597F9089597F99F6780E870E03E
:1010F00060E008959FEF80EC089500240A9416168E
:10110000170618060906089500240A9412161306F5
:10111000140605060895092E0394000C11F4882383
:1011200052F0BB0F40F4BF2B11F460FF04C06F5F9F
:0C1130007F4F8F4F9F4F0895F894FFCF22
:02113C000100B0
:00000001FF
